{
  "contractName": "BridgeGo",
  "abi": [
    {
      "inputs": [
        {
          "internalType": "address",
          "name": "token",
          "type": "address"
        }
      ],
      "stateMutability": "nonpayable",
      "type": "constructor"
    },
    {
      "anonymous": false,
      "inputs": [
        {
          "indexed": false,
          "internalType": "address",
          "name": "from",
          "type": "address"
        },
        {
          "indexed": false,
          "internalType": "address",
          "name": "to",
          "type": "address"
        },
        {
          "indexed": false,
          "internalType": "uint256",
          "name": "amount",
          "type": "uint256"
        },
        {
          "indexed": false,
          "internalType": "uint256",
          "name": "date",
          "type": "uint256"
        },
        {
          "indexed": false,
          "internalType": "uint256",
          "name": "nonce",
          "type": "uint256"
        },
        {
          "indexed": false,
          "internalType": "bytes",
          "name": "signature",
          "type": "bytes"
        },
        {
          "indexed": true,
          "internalType": "enum BridgeBase.Step",
          "name": "step",
          "type": "uint8"
        }
      ],
      "name": "Transfer",
      "type": "event"
    },
    {
      "inputs": [
        {
          "internalType": "address",
          "name": "to",
          "type": "address"
        },
        {
          "internalType": "uint256",
          "name": "amount",
          "type": "uint256"
        },
        {
          "internalType": "uint256",
          "name": "nonce",
          "type": "uint256"
        },
        {
          "internalType": "bytes",
          "name": "signature",
          "type": "bytes"
        }
      ],
      "name": "burn",
      "outputs": [],
      "stateMutability": "nonpayable",
      "type": "function"
    },
    {
      "inputs": [
        {
          "internalType": "address",
          "name": "from",
          "type": "address"
        },
        {
          "internalType": "address",
          "name": "to",
          "type": "address"
        },
        {
          "internalType": "uint256",
          "name": "amount",
          "type": "uint256"
        },
        {
          "internalType": "uint256",
          "name": "nonce",
          "type": "uint256"
        },
        {
          "internalType": "bytes",
          "name": "signature",
          "type": "bytes"
        }
      ],
      "name": "mint",
      "outputs": [],
      "stateMutability": "nonpayable",
      "type": "function"
    },
    {
      "inputs": [
        {
          "internalType": "address",
          "name": "",
          "type": "address"
        },
        {
          "internalType": "uint256",
          "name": "",
          "type": "uint256"
        }
      ],
      "name": "processedNonces",
      "outputs": [
        {
          "internalType": "bool",
          "name": "",
          "type": "bool"
        }
      ],
      "stateMutability": "view",
      "type": "function",
      "constant": true
    },
    {
      "inputs": [],
      "name": "token",
      "outputs": [
        {
          "internalType": "contract IToken",
          "name": "",
          "type": "address"
        }
      ],
      "stateMutability": "view",
      "type": "function",
      "constant": true
    }
  ],
  "bytecode": "0x608060405234801561000f575f80fd5b50604051610ec9380380610ec9833981810160405281019061003191906100d6565b80805f806101000a81548173ffffffffffffffffffffffffffffffffffffffff021916908373ffffffffffffffffffffffffffffffffffffffff1602179055505050610101565b5f80fd5b5f73ffffffffffffffffffffffffffffffffffffffff82169050919050565b5f6100a58261007c565b9050919050565b6100b58161009b565b81146100bf575f80fd5b50565b5f815190506100d0816100ac565b92915050565b5f602082840312156100eb576100ea610078565b5b5f6100f8848285016100c2565b91505092915050565b610dbb8061010e5f395ff3fe608060405234801561000f575f80fd5b506004361061004a575f3560e01c8063525557021461004e5780637cc702401461006a5780638a94b05f1461009a578063fc0c546a146100b6575b5f80fd5b610068600480360381019061006391906107b1565b6100d4565b005b610084600480360381019061007f9190610847565b6103ad565b604051610091919061089f565b60405180910390f35b6100b460048036038101906100af91906108b8565b6103d7565b005b6100be6105bc565b6040516100cb9190610997565b60405180910390f35b5f61010a878787876040516020016100ef9493929190610a15565b604051602081830303815290604052805190602001206105df565b90508673ffffffffffffffffffffffffffffffffffffffff166101708285858080601f0160208091040260200160405190810160405280939291908181526020018383808284375f81840152601f19601f8201169050808301925050505050505061060e565b73ffffffffffffffffffffffffffffffffffffffff16146101c6576040517f08c379a00000000000000000000000000000000000000000000000000000000081526004016101bd90610abc565b60405180910390fd5b5f151560015f8973ffffffffffffffffffffffffffffffffffffffff1673ffffffffffffffffffffffffffffffffffffffff1681526020019081526020015f205f8681526020019081526020015f205f9054906101000a900460ff16151514610264576040517f08c379a000000000000000000000000000000000000000000000000000000000815260040161025b90610b24565b60405180910390fd5b6001805f8973ffffffffffffffffffffffffffffffffffffffff1673ffffffffffffffffffffffffffffffffffffffff1681526020019081526020015f205f8681526020019081526020015f205f6101000a81548160ff0219169083151502179055505f8054906101000a900473ffffffffffffffffffffffffffffffffffffffff1673ffffffffffffffffffffffffffffffffffffffff166340c10f1987876040518363ffffffff1660e01b8152600401610321929190610b60565b5f604051808303815f87803b158015610338575f80fd5b505af115801561034a573d5f803e3d5ffd5b5050505060018081111561036157610360610b87565b5b7fce5a9b86edd3b998c3948a7934c7ecf7dba73c4c5bcf56cf576bca4aa2beeb308888884289898960405161039c9796959493929190610c0e565b60405180910390a250505050505050565b6001602052815f5260405f20602052805f5260405f205f915091509054906101000a900460ff1681565b5f151560015f3373ffffffffffffffffffffffffffffffffffffffff1673ffffffffffffffffffffffffffffffffffffffff1681526020019081526020015f205f8581526020019081526020015f205f9054906101000a900460ff16151514610475576040517f08c379a000000000000000000000000000000000000000000000000000000000815260040161046c90610b24565b60405180910390fd5b6001805f3373ffffffffffffffffffffffffffffffffffffffff1673ffffffffffffffffffffffffffffffffffffffff1681526020019081526020015f205f8581526020019081526020015f205f6101000a81548160ff0219169083151502179055505f8054906101000a900473ffffffffffffffffffffffffffffffffffffffff1673ffffffffffffffffffffffffffffffffffffffff16639dc29fac33866040518363ffffffff1660e01b8152600401610532929190610b60565b5f604051808303815f87803b158015610549575f80fd5b505af115801561055b573d5f803e3d5ffd5b505050505f600181111561057257610571610b87565b5b7fce5a9b86edd3b998c3948a7934c7ecf7dba73c4c5bcf56cf576bca4aa2beeb30338787428888886040516105ad9796959493929190610c0e565b60405180910390a25050505050565b5f8054906101000a900473ffffffffffffffffffffffffffffffffffffffff1681565b5f816040516020016105f19190610cf3565b604051602081830303815290604052805190602001209050919050565b5f805f8061061b8561067e565b8093508194508295505050506001868484846040515f81526020016040526040516106499493929190610d42565b6020604051602081039080840390855afa158015610669573d5f803e3d5ffd5b50505060206040510351935050505092915050565b5f805f604184511461068e575f80fd5b5f805f602087015192506040870151915060608701515f1a90508083839550955095505050509193909250565b5f80fd5b5f80fd5b5f73ffffffffffffffffffffffffffffffffffffffff82169050919050565b5f6106ec826106c3565b9050919050565b6106fc816106e2565b8114610706575f80fd5b50565b5f81359050610717816106f3565b92915050565b5f819050919050565b61072f8161071d565b8114610739575f80fd5b50565b5f8135905061074a81610726565b92915050565b5f80fd5b5f80fd5b5f80fd5b5f8083601f84011261077157610770610750565b5b8235905067ffffffffffffffff81111561078e5761078d610754565b5b6020830191508360018202830111156107aa576107a9610758565b5b9250929050565b5f805f805f8060a087890312156107cb576107ca6106bb565b5b5f6107d889828a01610709565b96505060206107e989828a01610709565b95505060406107fa89828a0161073c565b945050606061080b89828a0161073c565b935050608087013567ffffffffffffffff81111561082c5761082b6106bf565b5b61083889828a0161075c565b92509250509295509295509295565b5f806040838503121561085d5761085c6106bb565b5b5f61086a85828601610709565b925050602061087b8582860161073c565b9150509250929050565b5f8115159050919050565b61089981610885565b82525050565b5f6020820190506108b25f830184610890565b92915050565b5f805f805f608086880312156108d1576108d06106bb565b5b5f6108de88828901610709565b95505060206108ef8882890161073c565b94505060406109008882890161073c565b935050606086013567ffffffffffffffff811115610921576109206106bf565b5b61092d8882890161075c565b92509250509295509295909350565b5f819050919050565b5f61095f61095a610955846106c3565b61093c565b6106c3565b9050919050565b5f61097082610945565b9050919050565b5f61098182610966565b9050919050565b61099181610977565b82525050565b5f6020820190506109aa5f830184610988565b92915050565b5f8160601b9050919050565b5f6109c6826109b0565b9050919050565b5f6109d7826109bc565b9050919050565b6109ef6109ea826106e2565b6109cd565b82525050565b5f819050919050565b610a0f610a0a8261071d565b6109f5565b82525050565b5f610a2082876109de565b601482019150610a3082866109de565b601482019150610a4082856109fe565b602082019150610a5082846109fe565b60208201915081905095945050505050565b5f82825260208201905092915050565b7f77726f6e67207369676e617475726500000000000000000000000000000000005f82015250565b5f610aa6600f83610a62565b9150610ab182610a72565b602082019050919050565b5f6020820190508181035f830152610ad381610a9a565b9050919050565b7f7472616e7366657220616c72656164792070726f6365737365640000000000005f82015250565b5f610b0e601a83610a62565b9150610b1982610ada565b602082019050919050565b5f6020820190508181035f830152610b3b81610b02565b9050919050565b610b4b816106e2565b82525050565b610b5a8161071d565b82525050565b5f604082019050610b735f830185610b42565b610b806020830184610b51565b9392505050565b7f4e487b71000000000000000000000000000000000000000000000000000000005f52602160045260245ffd5b5f82825260208201905092915050565b828183375f83830152505050565b5f601f19601f8301169050919050565b5f610bed8385610bb4565b9350610bfa838584610bc4565b610c0383610bd2565b840190509392505050565b5f60c082019050610c215f83018a610b42565b610c2e6020830189610b42565b610c3b6040830188610b51565b610c486060830187610b51565b610c556080830186610b51565b81810360a0830152610c68818486610be2565b905098975050505050505050565b5f81905092915050565b7f19457468657265756d205369676e6564204d6573736167653a0a3332000000005f82015250565b5f610cb4601c83610c76565b9150610cbf82610c80565b601c82019050919050565b5f819050919050565b5f819050919050565b610ced610ce882610cca565b610cd3565b82525050565b5f610cfd82610ca8565b9150610d098284610cdc565b60208201915081905092915050565b610d2181610cca565b82525050565b5f60ff82169050919050565b610d3c81610d27565b82525050565b5f608082019050610d555f830187610d18565b610d626020830186610d33565b610d6f6040830185610d18565b610d7c6060830184610d18565b9594505050505056fea2646970667358221220c509c498809b12d83bdcb342ed34d0c044d09fef79e091600d5285d1d17175a664736f6c63430008150033",
  "immutableReferences": {},
  "source": "// SPDX-License-Identifier: MIT\npragma solidity ^0.8.0;\n\nimport './BridgeBase.sol';\n\ncontract BridgeGo is BridgeBase {\n  constructor(address token) BridgeBase(token) {}\n}",
  "sourcePath": "/home/pc/block-chain/bridge/contracts/BridgeGo.sol",
  "compiler": {
    "name": "solc",
    "version": "0.8.21+commit.d9974bed.Emscripten.clang"
  },
  "schemaVersion": "3.4.16",
  "updatedAt": "2023-10-06T12:23:02.732Z",
  "networkType": "ethereum",
  "devdoc": {
    "kind": "dev",
    "methods": {},
    "version": 1
  },
  "userdoc": {
    "kind": "user",
    "methods": {},
    "version": 1
  }
}