{
  "contractName": "TokenBase",
  "abi": [
    {
      "inputs": [
        {
          "internalType": "string",
          "name": "name",
          "type": "string"
        },
        {
          "internalType": "string",
          "name": "symbol",
          "type": "string"
        }
      ],
      "stateMutability": "nonpayable",
      "type": "constructor"
    },
    {
      "inputs": [
        {
          "internalType": "address",
          "name": "spender",
          "type": "address"
        },
        {
          "internalType": "uint256",
          "name": "allowance",
          "type": "uint256"
        },
        {
          "internalType": "uint256",
          "name": "needed",
          "type": "uint256"
        }
      ],
      "name": "ERC20InsufficientAllowance",
      "type": "error"
    },
    {
      "inputs": [
        {
          "internalType": "address",
          "name": "sender",
          "type": "address"
        },
        {
          "internalType": "uint256",
          "name": "balance",
          "type": "uint256"
        },
        {
          "internalType": "uint256",
          "name": "needed",
          "type": "uint256"
        }
      ],
      "name": "ERC20InsufficientBalance",
      "type": "error"
    },
    {
      "inputs": [
        {
          "internalType": "address",
          "name": "approver",
          "type": "address"
        }
      ],
      "name": "ERC20InvalidApprover",
      "type": "error"
    },
    {
      "inputs": [
        {
          "internalType": "address",
          "name": "receiver",
          "type": "address"
        }
      ],
      "name": "ERC20InvalidReceiver",
      "type": "error"
    },
    {
      "inputs": [
        {
          "internalType": "address",
          "name": "sender",
          "type": "address"
        }
      ],
      "name": "ERC20InvalidSender",
      "type": "error"
    },
    {
      "inputs": [
        {
          "internalType": "address",
          "name": "spender",
          "type": "address"
        }
      ],
      "name": "ERC20InvalidSpender",
      "type": "error"
    },
    {
      "anonymous": false,
      "inputs": [
        {
          "indexed": true,
          "internalType": "address",
          "name": "owner",
          "type": "address"
        },
        {
          "indexed": true,
          "internalType": "address",
          "name": "spender",
          "type": "address"
        },
        {
          "indexed": false,
          "internalType": "uint256",
          "name": "value",
          "type": "uint256"
        }
      ],
      "name": "Approval",
      "type": "event"
    },
    {
      "anonymous": false,
      "inputs": [
        {
          "indexed": true,
          "internalType": "address",
          "name": "from",
          "type": "address"
        },
        {
          "indexed": true,
          "internalType": "address",
          "name": "to",
          "type": "address"
        },
        {
          "indexed": false,
          "internalType": "uint256",
          "name": "value",
          "type": "uint256"
        }
      ],
      "name": "Transfer",
      "type": "event"
    },
    {
      "inputs": [],
      "name": "admin",
      "outputs": [
        {
          "internalType": "address",
          "name": "",
          "type": "address"
        }
      ],
      "stateMutability": "view",
      "type": "function"
    },
    {
      "inputs": [
        {
          "internalType": "address",
          "name": "owner",
          "type": "address"
        },
        {
          "internalType": "address",
          "name": "spender",
          "type": "address"
        }
      ],
      "name": "allowance",
      "outputs": [
        {
          "internalType": "uint256",
          "name": "",
          "type": "uint256"
        }
      ],
      "stateMutability": "view",
      "type": "function"
    },
    {
      "inputs": [
        {
          "internalType": "address",
          "name": "spender",
          "type": "address"
        },
        {
          "internalType": "uint256",
          "name": "value",
          "type": "uint256"
        }
      ],
      "name": "approve",
      "outputs": [
        {
          "internalType": "bool",
          "name": "",
          "type": "bool"
        }
      ],
      "stateMutability": "nonpayable",
      "type": "function"
    },
    {
      "inputs": [
        {
          "internalType": "address",
          "name": "account",
          "type": "address"
        }
      ],
      "name": "balanceOf",
      "outputs": [
        {
          "internalType": "uint256",
          "name": "",
          "type": "uint256"
        }
      ],
      "stateMutability": "view",
      "type": "function"
    },
    {
      "inputs": [],
      "name": "decimals",
      "outputs": [
        {
          "internalType": "uint8",
          "name": "",
          "type": "uint8"
        }
      ],
      "stateMutability": "view",
      "type": "function"
    },
    {
      "inputs": [],
      "name": "name",
      "outputs": [
        {
          "internalType": "string",
          "name": "",
          "type": "string"
        }
      ],
      "stateMutability": "view",
      "type": "function"
    },
    {
      "inputs": [],
      "name": "symbol",
      "outputs": [
        {
          "internalType": "string",
          "name": "",
          "type": "string"
        }
      ],
      "stateMutability": "view",
      "type": "function"
    },
    {
      "inputs": [],
      "name": "totalSupply",
      "outputs": [
        {
          "internalType": "uint256",
          "name": "",
          "type": "uint256"
        }
      ],
      "stateMutability": "view",
      "type": "function"
    },
    {
      "inputs": [
        {
          "internalType": "address",
          "name": "to",
          "type": "address"
        },
        {
          "internalType": "uint256",
          "name": "value",
          "type": "uint256"
        }
      ],
      "name": "transfer",
      "outputs": [
        {
          "internalType": "bool",
          "name": "",
          "type": "bool"
        }
      ],
      "stateMutability": "nonpayable",
      "type": "function"
    },
    {
      "inputs": [
        {
          "internalType": "address",
          "name": "from",
          "type": "address"
        },
        {
          "internalType": "address",
          "name": "to",
          "type": "address"
        },
        {
          "internalType": "uint256",
          "name": "value",
          "type": "uint256"
        }
      ],
      "name": "transferFrom",
      "outputs": [
        {
          "internalType": "bool",
          "name": "",
          "type": "bool"
        }
      ],
      "stateMutability": "nonpayable",
      "type": "function"
    },
    {
      "inputs": [
        {
          "internalType": "address",
          "name": "newAdmin",
          "type": "address"
        }
      ],
      "name": "updateAdmin",
      "outputs": [],
      "stateMutability": "nonpayable",
      "type": "function"
    },
    {
      "inputs": [
        {
          "internalType": "address",
          "name": "to",
          "type": "address"
        },
        {
          "internalType": "uint256",
          "name": "amount",
          "type": "uint256"
        }
      ],
      "name": "mint",
      "outputs": [],
      "stateMutability": "nonpayable",
      "type": "function"
    },
    {
      "inputs": [
        {
          "internalType": "address",
          "name": "owner",
          "type": "address"
        },
        {
          "internalType": "uint256",
          "name": "amount",
          "type": "uint256"
        }
      ],
      "name": "burn",
      "outputs": [],
      "stateMutability": "nonpayable",
      "type": "function"
    }
  ],
  "bytecode": "0x608060405234801562000010575f80fd5b50604051620018173803806200181783398181016040528101906200003691906200022b565b81818160039081620000499190620004e5565b5080600490816200005b9190620004e5565b5050503360055f6101000a81548173ffffffffffffffffffffffffffffffffffffffff021916908373ffffffffffffffffffffffffffffffffffffffff1602179055505050620005c9565b5f604051905090565b5f80fd5b5f80fd5b5f80fd5b5f80fd5b5f601f19601f8301169050919050565b7f4e487b71000000000000000000000000000000000000000000000000000000005f52604160045260245ffd5b6200010782620000bf565b810181811067ffffffffffffffff82111715620001295762000128620000cf565b5b80604052505050565b5f6200013d620000a6565b90506200014b8282620000fc565b919050565b5f67ffffffffffffffff8211156200016d576200016c620000cf565b5b6200017882620000bf565b9050602081019050919050565b5f5b83811015620001a457808201518184015260208101905062000187565b5f8484015250505050565b5f620001c5620001bf8462000150565b62000132565b905082815260208101848484011115620001e457620001e3620000bb565b5b620001f184828562000185565b509392505050565b5f82601f83011262000210576200020f620000b7565b5b815162000222848260208601620001af565b91505092915050565b5f8060408385031215620002445762000243620000af565b5b5f83015167ffffffffffffffff811115620002645762000263620000b3565b5b6200027285828601620001f9565b925050602083015167ffffffffffffffff811115620002965762000295620000b3565b5b620002a485828601620001f9565b9150509250929050565b5f81519050919050565b7f4e487b71000000000000000000000000000000000000000000000000000000005f52602260045260245ffd5b5f6002820490506001821680620002fd57607f821691505b602082108103620003135762000312620002b8565b5b50919050565b5f819050815f5260205f209050919050565b5f6020601f8301049050919050565b5f82821b905092915050565b5f60088302620003777fffffffffffffffffffffffffffffffffffffffffffffffffffffffffffffffff826200033a565b6200038386836200033a565b95508019841693508086168417925050509392505050565b5f819050919050565b5f819050919050565b5f620003cd620003c7620003c1846200039b565b620003a4565b6200039b565b9050919050565b5f819050919050565b620003e883620003ad565b62000400620003f782620003d4565b84845462000346565b825550505050565b5f90565b6200041662000408565b62000423818484620003dd565b505050565b5b818110156200044a576200043e5f826200040c565b60018101905062000429565b5050565b601f8211156200049957620004638162000319565b6200046e846200032b565b810160208510156200047e578190505b620004966200048d856200032b565b83018262000428565b50505b505050565b5f82821c905092915050565b5f620004bb5f19846008026200049e565b1980831691505092915050565b5f620004d58383620004aa565b9150826002028217905092915050565b620004f082620002ae565b67ffffffffffffffff8111156200050c576200050b620000cf565b5b620005188254620002e5565b620005258282856200044e565b5f60209050601f8311600181146200055b575f841562000546578287015190505b620005528582620004c8565b865550620005c1565b601f1984166200056b8662000319565b5f5b8281101562000594578489015182556001820191506020850194506020810190506200056d565b86831015620005b45784890151620005b0601f891682620004aa565b8355505b6001600288020188555050505b505050505050565b61124080620005d75f395ff3fe608060405234801561000f575f80fd5b50600436106100cd575f3560e01c806370a082311161008a578063a9059cbb11610064578063a9059cbb14610211578063dd62ed3e14610241578063e2f273bd14610271578063f851a4401461028d576100cd565b806370a08231146101a757806395d89b41146101d75780639dc29fac146101f5576100cd565b806306fdde03146100d1578063095ea7b3146100ef57806318160ddd1461011f57806323b872dd1461013d578063313ce5671461016d57806340c10f191461018b575b5f80fd5b6100d96102ab565b6040516100e69190610e51565b60405180910390f35b61010960048036038101906101049190610f02565b61033b565b6040516101169190610f5a565b60405180910390f35b61012761035d565b6040516101349190610f82565b60405180910390f35b61015760048036038101906101529190610f9b565b610366565b6040516101649190610f5a565b60405180910390f35b610175610394565b6040516101829190611006565b60405180910390f35b6101a560048036038101906101a09190610f02565b61039c565b005b6101c160048036038101906101bc919061101f565b610439565b6040516101ce9190610f82565b60405180910390f35b6101df61047e565b6040516101ec9190610e51565b60405180910390f35b61020f600480360381019061020a9190610f02565b61050e565b005b61022b60048036038101906102269190610f02565b6105ab565b6040516102389190610f5a565b60405180910390f35b61025b6004803603810190610256919061104a565b6105cd565b6040516102689190610f82565b60405180910390f35b61028b6004803603810190610286919061101f565b61064f565b005b610295610721565b6040516102a29190611097565b60405180910390f35b6060600380546102ba906110dd565b80601f01602080910402602001604051908101604052809291908181526020018280546102e6906110dd565b80156103315780601f1061030857610100808354040283529160200191610331565b820191905f5260205f20905b81548152906001019060200180831161031457829003601f168201915b5050505050905090565b5f80610345610746565b905061035281858561074d565b600191505092915050565b5f600254905090565b5f80610370610746565b905061037d85828561075f565b6103888585856107f1565b60019150509392505050565b5f6012905090565b60055f9054906101000a900473ffffffffffffffffffffffffffffffffffffffff1673ffffffffffffffffffffffffffffffffffffffff163373ffffffffffffffffffffffffffffffffffffffff161461042b576040517f08c379a000000000000000000000000000000000000000000000000000000000815260040161042290611157565b60405180910390fd5b61043582826108e1565b5050565b5f805f8373ffffffffffffffffffffffffffffffffffffffff1673ffffffffffffffffffffffffffffffffffffffff1681526020019081526020015f20549050919050565b60606004805461048d906110dd565b80601f01602080910402602001604051908101604052809291908181526020018280546104b9906110dd565b80156105045780601f106104db57610100808354040283529160200191610504565b820191905f5260205f20905b8154815290600101906020018083116104e757829003601f168201915b5050505050905090565b60055f9054906101000a900473ffffffffffffffffffffffffffffffffffffffff1673ffffffffffffffffffffffffffffffffffffffff163373ffffffffffffffffffffffffffffffffffffffff161461059d576040517f08c379a000000000000000000000000000000000000000000000000000000000815260040161059490611157565b60405180910390fd5b6105a78282610960565b5050565b5f806105b5610746565b90506105c28185856107f1565b600191505092915050565b5f60015f8473ffffffffffffffffffffffffffffffffffffffff1673ffffffffffffffffffffffffffffffffffffffff1681526020019081526020015f205f8373ffffffffffffffffffffffffffffffffffffffff1673ffffffffffffffffffffffffffffffffffffffff1681526020019081526020015f2054905092915050565b60055f9054906101000a900473ffffffffffffffffffffffffffffffffffffffff1673ffffffffffffffffffffffffffffffffffffffff163373ffffffffffffffffffffffffffffffffffffffff16146106de576040517f08c379a00000000000000000000000000000000000000000000000000000000081526004016106d590611157565b60405180910390fd5b8060055f6101000a81548173ffffffffffffffffffffffffffffffffffffffff021916908373ffffffffffffffffffffffffffffffffffffffff16021790555050565b60055f9054906101000a900473ffffffffffffffffffffffffffffffffffffffff1681565b5f33905090565b61075a83838360016109df565b505050565b5f61076a84846105cd565b90507fffffffffffffffffffffffffffffffffffffffffffffffffffffffffffffffff81146107eb57818110156107dc578281836040517ffb8f41b20000000000000000000000000000000000000000000000000000000081526004016107d393929190611175565b60405180910390fd5b6107ea84848484035f6109df565b5b50505050565b5f73ffffffffffffffffffffffffffffffffffffffff168373ffffffffffffffffffffffffffffffffffffffff1603610861575f6040517f96c6fd1e0000000000000000000000000000000000000000000000000000000081526004016108589190611097565b60405180910390fd5b5f73ffffffffffffffffffffffffffffffffffffffff168273ffffffffffffffffffffffffffffffffffffffff16036108d1575f6040517fec442f050000000000000000000000000000000000000000000000000000000081526004016108c89190611097565b60405180910390fd5b6108dc838383610bae565b505050565b5f73ffffffffffffffffffffffffffffffffffffffff168273ffffffffffffffffffffffffffffffffffffffff1603610951575f6040517fec442f050000000000000000000000000000000000000000000000000000000081526004016109489190611097565b60405180910390fd5b61095c5f8383610bae565b5050565b5f73ffffffffffffffffffffffffffffffffffffffff168273ffffffffffffffffffffffffffffffffffffffff16036109d0575f6040517f96c6fd1e0000000000000000000000000000000000000000000000000000000081526004016109c79190611097565b60405180910390fd5b6109db825f83610bae565b5050565b5f73ffffffffffffffffffffffffffffffffffffffff168473ffffffffffffffffffffffffffffffffffffffff1603610a4f575f6040517fe602df05000000000000000000000000000000000000000000000000000000008152600401610a469190611097565b60405180910390fd5b5f73ffffffffffffffffffffffffffffffffffffffff168373ffffffffffffffffffffffffffffffffffffffff1603610abf575f6040517f94280d62000000000000000000000000000000000000000000000000000000008152600401610ab69190611097565b60405180910390fd5b8160015f8673ffffffffffffffffffffffffffffffffffffffff1673ffffffffffffffffffffffffffffffffffffffff1681526020019081526020015f205f8573ffffffffffffffffffffffffffffffffffffffff1673ffffffffffffffffffffffffffffffffffffffff1681526020019081526020015f20819055508015610ba8578273ffffffffffffffffffffffffffffffffffffffff168473ffffffffffffffffffffffffffffffffffffffff167f8c5be1e5ebec7d5bd14f71427d1e84f3dd0314c0f7b2291e5b200ac8c7c3b92584604051610b9f9190610f82565b60405180910390a35b50505050565b5f73ffffffffffffffffffffffffffffffffffffffff168373ffffffffffffffffffffffffffffffffffffffff1603610bfe578060025f828254610bf291906111d7565b92505081905550610ccc565b5f805f8573ffffffffffffffffffffffffffffffffffffffff1673ffffffffffffffffffffffffffffffffffffffff1681526020019081526020015f2054905081811015610c87578381836040517fe450d38c000000000000000000000000000000000000000000000000000000008152600401610c7e93929190611175565b60405180910390fd5b8181035f808673ffffffffffffffffffffffffffffffffffffffff1673ffffffffffffffffffffffffffffffffffffffff1681526020019081526020015f2081905550505b5f73ffffffffffffffffffffffffffffffffffffffff168273ffffffffffffffffffffffffffffffffffffffff1603610d13578060025f8282540392505081905550610d5d565b805f808473ffffffffffffffffffffffffffffffffffffffff1673ffffffffffffffffffffffffffffffffffffffff1681526020019081526020015f205f82825401925050819055505b8173ffffffffffffffffffffffffffffffffffffffff168373ffffffffffffffffffffffffffffffffffffffff167fddf252ad1be2c89b69c2b068fc378daa952ba7f163c4a11628f55a4df523b3ef83604051610dba9190610f82565b60405180910390a3505050565b5f81519050919050565b5f82825260208201905092915050565b5f5b83811015610dfe578082015181840152602081019050610de3565b5f8484015250505050565b5f601f19601f8301169050919050565b5f610e2382610dc7565b610e2d8185610dd1565b9350610e3d818560208601610de1565b610e4681610e09565b840191505092915050565b5f6020820190508181035f830152610e698184610e19565b905092915050565b5f80fd5b5f73ffffffffffffffffffffffffffffffffffffffff82169050919050565b5f610e9e82610e75565b9050919050565b610eae81610e94565b8114610eb8575f80fd5b50565b5f81359050610ec981610ea5565b92915050565b5f819050919050565b610ee181610ecf565b8114610eeb575f80fd5b50565b5f81359050610efc81610ed8565b92915050565b5f8060408385031215610f1857610f17610e71565b5b5f610f2585828601610ebb565b9250506020610f3685828601610eee565b9150509250929050565b5f8115159050919050565b610f5481610f40565b82525050565b5f602082019050610f6d5f830184610f4b565b92915050565b610f7c81610ecf565b82525050565b5f602082019050610f955f830184610f73565b92915050565b5f805f60608486031215610fb257610fb1610e71565b5b5f610fbf86828701610ebb565b9350506020610fd086828701610ebb565b9250506040610fe186828701610eee565b9150509250925092565b5f60ff82169050919050565b61100081610feb565b82525050565b5f6020820190506110195f830184610ff7565b92915050565b5f6020828403121561103457611033610e71565b5b5f61104184828501610ebb565b91505092915050565b5f80604083850312156110605761105f610e71565b5b5f61106d85828601610ebb565b925050602061107e85828601610ebb565b9150509250929050565b61109181610e94565b82525050565b5f6020820190506110aa5f830184611088565b92915050565b7f4e487b71000000000000000000000000000000000000000000000000000000005f52602260045260245ffd5b5f60028204905060018216806110f457607f821691505b602082108103611107576111066110b0565b5b50919050565b7f6f6e6c792061646d696e000000000000000000000000000000000000000000005f82015250565b5f611141600a83610dd1565b915061114c8261110d565b602082019050919050565b5f6020820190508181035f83015261116e81611135565b9050919050565b5f6060820190506111885f830186611088565b6111956020830185610f73565b6111a26040830184610f73565b949350505050565b7f4e487b71000000000000000000000000000000000000000000000000000000005f52601160045260245ffd5b5f6111e182610ecf565b91506111ec83610ecf565b9250828201905080821115611204576112036111aa565b5b9291505056fea2646970667358221220b1d9c26393bf14a2f5a59cfc5d99fdb63891bea7f1e5610939182fed9f32342264736f6c63430008150033",
  "immutableReferences": {},
  "source": "// SPDX-License-Identifier: MIT\npragma solidity ^0.8.0;\n\nimport \"@openzeppelin/contracts/token/ERC20/ERC20.sol\";\n\ncontract TokenBase is ERC20 {\n  address public admin;\n\n  constructor(string memory name, string memory symbol) ERC20(name, symbol) {\n    admin = msg.sender; \n  }\n\n  function updateAdmin(address newAdmin) external {\n    require(msg.sender == admin, 'only admin');\n    admin = newAdmin;\n  }\n\n  function mint(address to, uint amount) external {\n    require(msg.sender == admin, 'only admin');\n    _mint(to, amount);\n  }\n\n  function burn(address owner, uint amount) external {\n    require(msg.sender == admin, 'only admin');\n    _burn(owner, amount);\n  }\n}",
  "sourcePath": "/home/pc/block-chain/bridge/contracts/TokenBase.sol",
  "compiler": {
    "name": "solc",
    "version": "0.8.21+commit.d9974bed.Emscripten.clang"
  },
  "schemaVersion": "3.4.16",
  "updatedAt": "2023-10-06T11:56:03.512Z",
  "devdoc": {
    "errors": {
      "ERC20InsufficientAllowance(address,uint256,uint256)": [
        {
          "details": "Indicates a failure with the `spender`s `allowance`. Used in transfers.",
          "params": {
            "allowance": "Amount of tokens a `spender` is allowed to operate with.",
            "needed": "Minimum amount required to perform a transfer.",
            "spender": "Address that may be allowed to operate on tokens without being their owner."
          }
        }
      ],
      "ERC20InsufficientBalance(address,uint256,uint256)": [
        {
          "details": "Indicates an error related to the current `balance` of a `sender`. Used in transfers.",
          "params": {
            "balance": "Current balance for the interacting account.",
            "needed": "Minimum amount required to perform a transfer.",
            "sender": "Address whose tokens are being transferred."
          }
        }
      ],
      "ERC20InvalidApprover(address)": [
        {
          "details": "Indicates a failure with the `approver` of a token to be approved. Used in approvals.",
          "params": {
            "approver": "Address initiating an approval operation."
          }
        }
      ],
      "ERC20InvalidReceiver(address)": [
        {
          "details": "Indicates a failure with the token `receiver`. Used in transfers.",
          "params": {
            "receiver": "Address to which tokens are being transferred."
          }
        }
      ],
      "ERC20InvalidSender(address)": [
        {
          "details": "Indicates a failure with the token `sender`. Used in transfers.",
          "params": {
            "sender": "Address whose tokens are being transferred."
          }
        }
      ],
      "ERC20InvalidSpender(address)": [
        {
          "details": "Indicates a failure with the `spender` to be approved. Used in approvals.",
          "params": {
            "spender": "Address that may be allowed to operate on tokens without being their owner."
          }
        }
      ]
    },
    "events": {
      "Approval(address,address,uint256)": {
        "details": "Emitted when the allowance of a `spender` for an `owner` is set by a call to {approve}. `value` is the new allowance."
      },
      "Transfer(address,address,uint256)": {
        "details": "Emitted when `value` tokens are moved from one account (`from`) to another (`to`). Note that `value` may be zero."
      }
    },
    "kind": "dev",
    "methods": {
      "allowance(address,address)": {
        "details": "See {IERC20-allowance}."
      },
      "approve(address,uint256)": {
        "details": "See {IERC20-approve}. NOTE: If `value` is the maximum `uint256`, the allowance is not updated on `transferFrom`. This is semantically equivalent to an infinite approval. Requirements: - `spender` cannot be the zero address."
      },
      "balanceOf(address)": {
        "details": "See {IERC20-balanceOf}."
      },
      "decimals()": {
        "details": "Returns the number of decimals used to get its user representation. For example, if `decimals` equals `2`, a balance of `505` tokens should be displayed to a user as `5.05` (`505 / 10 ** 2`). Tokens usually opt for a value of 18, imitating the relationship between Ether and Wei. This is the default value returned by this function, unless it's overridden. NOTE: This information is only used for _display_ purposes: it in no way affects any of the arithmetic of the contract, including {IERC20-balanceOf} and {IERC20-transfer}."
      },
      "name()": {
        "details": "Returns the name of the token."
      },
      "symbol()": {
        "details": "Returns the symbol of the token, usually a shorter version of the name."
      },
      "totalSupply()": {
        "details": "See {IERC20-totalSupply}."
      },
      "transfer(address,uint256)": {
        "details": "See {IERC20-transfer}. Requirements: - `to` cannot be the zero address. - the caller must have a balance of at least `value`."
      },
      "transferFrom(address,address,uint256)": {
        "details": "See {IERC20-transferFrom}. Emits an {Approval} event indicating the updated allowance. This is not required by the EIP. See the note at the beginning of {ERC20}. NOTE: Does not update the allowance if the current allowance is the maximum `uint256`. Requirements: - `from` and `to` cannot be the zero address. - `from` must have a balance of at least `value`. - the caller must have allowance for ``from``'s tokens of at least `value`."
      }
    },
    "version": 1
  },
  "userdoc": {
    "kind": "user",
    "methods": {},
    "version": 1
  }
}